:020000040800F2
:10000000C80C002069020008FD600008FF600008BD
:1000100003610008076100080B6100080000000090
:100020000000000000000000000000000F61000858
:10003000116100080000000013610008156100084C
:10004000830200088302000883020008830200087C
:1000500083020008830200082F5C00088302000866
:10006000830200088302000883020008830200085C
:10007000830200088302000883020008830200084C
:10008000830200088302000883020008830200083C
:10009000830200088302000883020008830200082C
:1000A000830200088302000883020008830200081C
:1000B0008302000883020008473D0008830200080D
:1000C000830200088302000883020008835A0008A4
:1000D000830200083D3200085137000851390008FA
:1000E00083020008830200088302000883020008DC
:1000F00083020008830200088302000883020008CC
:1001000083020008830200087B4000088302000885
:1001100083020008830200088302000883020008AB
:10012000830200088302000883020008830200089B
:10013000830200088302000883020008830200088B
:10014000830200088302000883020008830200087B
:10015000830200088302000883020008215D000872
:10016000830200088302000883020008830200085B
:10017000830200088302000883020008830200084B
:10018000830200088302000800F002F800F05CF827
:100190000AA090E8000C82448344AAF10107DA45E2
:1001A00001D100F051F8AFF2090EBAE80F0013F0D8
:1001B000010F18BFFB1A43F0010318473478000001
:1001C000547800000A444FF0000C10F8013B13F083
:1001D000070408BF10F8014B1D1108BF10F8015BA0
:1001E000641E05D010F8016B641E01F8016BF9D193
:1001F00013F0080F1EBF10F8014BAD1C0C1B09D1EA
:100200006D1E58BF01F801CBFAD505E014F8016B5B
:1002100001F8016B6D1EF9D59142D6D370470000ED
:100220000023002400250026103A28BF78C1FBD8FF
:10023000520728BF30C148BF0B6070471FB507F099
:1002400052FB1FBD10B510BD06F076F81146FFF742
:10025000F5FF05F0BAFE06F0A8F803B4FFF7F2FFC9
:1002600003BC02F07BFF00000948804709480047B3
:10027000FEE7FEE7FEE7FEE7FEE7FEE7FEE7FEE756
:10028000FEE7FEE704480549054A064B70470000B3
:10029000A922000889010008C8060020C80C002017
:1002A000C8080020C808002032490143324A1160C2
:1002B000704770B5002100230F22C4781CB32E4C68
:1002C000246804F4E064C4F5E064C4F30721C1F1D8
:1002D0000404E3B20A4144789C40E1B284781440BB
:1002E00021430C07210E254C05786155047804F054
:1002F0001F050124AC4005786D11AD0005F1E02526
:10030000C5F8004109E0047804F01F050124AC4061
:100310001B4D0678761145F8264070BD194A0A40F3
:100320000243154B1B1F1A60704739B1124A121D48
:1003300012680243104B1B1D1A6006E00E4A121D84
:10034000126882430C4B1B1D1A607047042808D1A9
:100350004FF0E021096941F004014FF0E022116102
:1003600007E04FF0E021096921F004014FF0E0229D
:10037000116170470000FA050CED00E000E400E0B8
:1003800080E100E080FFFF1F10B504468C488442E6
:1003900008D10121084600F000FB0021012000F0F7
:1003A000FCFA5EE08748844208D10121022000F077
:1003B000F4FA0021022000F0F0FA52E08248844270
:1003C00008D10121042000F0E8FA0021042000F007
:1003D000E4FA46E07D48844208D10121082000F07B
:1003E000DCFA0021082000F0D8FA3AE0784884428C
:1003F00008D10121102000F0D0FA0021102000F0D7
:10040000CCFA2EE07348844208D10121202000F06C
:10041000C4FA0021202000F0C0FA22E06E48844295
:1004200008D10121402000F0B8FA0021402000F05E
:10043000B4FA16E06948844208D10121802000F016
:10044000ACFA0021802000F0A8FA0AE06448844257
:1004500007D10121801500F0A0FA0021A01500F0BD
:100460009CFA10BDF0B50A4600210023002400BF0D
:100470003DE0012505FA01F3156805EA03049C42F5
:1004800034D105684F000326BE40B5430560157999
:100490004E00B5400668354305601579012D02D040
:1004A0001579022D16D185684F000326BE40B5434D
:1004B000856055794E00B54086683543856045684E
:1004C00001268E40B5434560456896798E40B6B2A8
:1004D00035434560C5684F000326BE40B543C5603F
:1004E000D5794E00B540C6683543C560491C102912
:1004F000BFD3F0BD4FF6FF71016000210171417162
:100500008171C171704708B54FF480320092009A32
:100510000A430092009AC261C161009AC261C26935
:100520000092C269009208BD0246002013690B4088
:100530000BB1012000E0002070470146086980B23D
:1005400070470246002053690B400BB1012000E0C8
:10055000002070470146486980B2704701837047A8
:10056000418370470AB1018300E0418370474161D4
:10057000704742694A4042617047F0B50023002449
:100580004D07ED0E02FA05F3CE1000F1200555F8E7
:1005900026504E07F70E0F26BE40B543CF1000F190
:1005A000200646F82750CE1000F1200555F82650B9
:1005B00045EA0304CE1000F1200545F82640F0BDC1
:1005C000000002400004024000080240000C02400B
:1005D000001002400014024000180240001C0240BB
:1005E00000200240FA48006840F00100F849086025
:1005F0000020F74908310860F5480068F5490840CF
:10060000F3490860F448091D0860081F006820F4D9
:100610008020091F08600020ED490C3108607047F8
:100620000021EB4A921C117011460870704710B5FA
:1006300001460022002300204A11012A02D1E44C85
:10064000236808E0022A03D1E14C7034236802E0F9
:10065000DF4C7434236801F01F02012494401C40D5
:100660000CB1012000E0002010BD38B50020009042
:100670000024002500BF3120FFF7D9FF0546009870
:10068000401C00900098B0F5A06F01D0002DF2D072
:100690003120FFF7CCFF08B1012400E00024204600
:1006A00038BD01460020CA4A106820F0F80040EA30
:1006B000C10010607047C949086070470021C44AF2
:1006C000703211701170012802D004280AD104E0A0
:1006D0000121BF4A7032117005E00521BC4A703219
:1006E000117000E000BF00BF7047BD49086070474F
:1006F00070B5049C41EA82150126C6EB530645EA13
:100700000645054345EA0465B14E361D356070BDAA
:10071000B24908667047820142EA0172AC4B8433E9
:100720001A607047AD4988667047AC49C864704725
:1007300002460020A64B0833186820F0EC6042EA1D
:1007400001031843A24B083318607047024600208B
:100750009F4B0833186820F0784042EA01031843A1
:100760009B4B08331860704701460020984A0832B6
:10077000106820F003000843106070479448083068
:10078000006800F00C00704701460020904A0832D3
:10079000106820F0F0000843106070470146002008
:1007A0008B4A0832106820F4E0500843106070470C
:1007B00001460020864A0832106820F4604040EA72
:1007C000C10010607047F0B500210022002402250E
:1007D000002602237E4F08373F6807F00C0121B145
:1007E000042905D0082937D105E07E4F076036E09F
:1007F0007D4F076033E0764F3F1D3F68C7F380565B
:10080000734F3F1D3F6807F03F036EB1764FB7FB54
:10081000F3F7DFF8BCC10CF1040CDCF800C0CCF33A
:10082000881C07FB0CF40CE06E4FB7FBF3F7DFF806
:10083000A0C10CF1040CDCF800C0CCF3881C07FB51
:100840000CF4634F3F1D3F68C7F301477F1C7D00D9
:10085000B4FBF5F7076002E0624F076000BF00BF1E
:100860005B4F08373F6807F0F00109095F4F7A5C7A
:100870000768D7404760564F08373F6807F4E05194
:10088000890A5A4F7A5C4768D7408760504F0837CB
:100890003F6807F46041490B544F7A5C4768D74082
:1008A000C760F0BD002100F44072B2F5407F0AD16C
:1008B000474A0832116821F4F8114D4A02401143A9
:1008C000434A08321160424A70321268C0F30B0387
:1008D0001A433F4B70331A607047414944390860EE
:1008E00070473F4940390860704742490860704787
:1008F00039B1374A303212680243354B30331A600F
:1009000006E0334A303212688243314B30331A608A
:10091000704739B12E4A3432126802432C4B3433BB
:100920001A6006E02A4A343212688243284B343374
:100930001A60704739B1264A383212680243244B94
:1009400038331A6006E0224A383212688243204B5C
:1009500038331A60704739B11D4A40321268024379
:100960001B4B40331A6006E0194A4032126882433A
:10097000174B40331A60704739B1154A4432126838
:100980000243134B44331A6006E0114A44321268A2
:1009900082430F4B44331A60704739B10C4A10320E
:1009A000126802430A4B10331A6006E0084A1032FC
:1009B00012688243064B10331A607047E1B1044A53
:1009C000143212680243024B14331A6019E000001B
:1009D00000380240FFFFF6FE1030002400004742BE
:1009E000800E47420024F40000127A00000000202C
:1009F000FFFCFF0F5C0147425B4A126882435A4B7F
:100A00001A60704739B1584A121D12680243564B9A
:100A10001B1D1A6006E0544A121D12688243524B95
:100A20001B1D1A60704739B14F4A0C3212680243DD
:100A30004D4B0C331A6006E04B4A0C32126882436D
:100A4000494B0C331A60704739B1474A103212686B
:100A50000243454B10331A6006E0434A10321268D5
:100A60008243414B10331A60704739B13E4A3C32E1
:100A7000126802433C4B3C331A6006E03A4A3C326F
:100A800012688243384B3C331A60704739B1364A9A
:100A9000403212680243344B40331A6006E0324A57
:100AA000403212688243304B40331A60704739B18C
:100AB0002D4A4432126802432B4B44331A6006E03D
:100AC000294A443212688243274B44331A607047E4
:100AD00039B1254A4C3212680243234B4C331A6019
:100AE00006E0214A4C32126882431F4B4C331A6095
:100AF000704739B11C4A5032126802431A4B5033C6
:100B00001A6006E0184A503212688243164B50337E
:100B10001A60704739B1144AD21F12780243124B3F
:100B2000DB1F1A7006E0104AD21F127882430E4B68
:100B3000DB1F1A7070470C486030006840F080700E
:100B4000094960310860704701460020064A083AAA
:100B500012680A400AB1012000E0002070470249F3
:100B6000891F0870704700001438024010B5044611
:100B7000F748844208D101211020FFF765FF0021CA
:100B80001020FFF761FF3EE0F248844209D10121C5
:100B90004804FFF748FF00214FF40030FFF743FF00
:100BA00031E0ED48844209D101218804FFF73BFF81
:100BB00000214FF48020FFF736FF24E0E74884420D
:100BC00009D10121C804FFF72EFF00214FF40020B6
:100BD000FFF729FF17E0E248844209D10121080507
:100BE000FFF721FF00214FF48010FFF71CFF0AE000
:100BF000DC48844207D101212020FFF725FF002196
:100C00002020FFF721FF10BD2DE9FF4705460E46C6
:100C10000024A14600BFA046B08900B100BF2C8AC5
:100C200024F44054F08804432C82AC8941F20C60D7
:100C30008443B08831890843718908430443AC81F7
:100C4000AC8A24F44074B0890443AC826846FFF750
:100C5000BAFDBF48854202D0C248854202D1DDF8C4
:100C60000C9001E0DDF80890A88900F4004040B144
:100C700009EBC90000EB091031684900B0FBF1F73E
:100C800007E009EBC90000EB091031688900B0FBEF
:100C9000F1F76420B7FBF0F004012009642101FBA7
:100CA0001078A88900F4004040B1322000EBC80061
:100CB000B0FBF1F000F00700044308E0322000EB45
:100CC00008106421B0FBF1F000F00F0004432C8108
:100CD000BDE8FF874FF41651016000218180C1807B
:100CE00001810C21418100218181704710B50246AC
:100CF0000020108A20F470600B884C8823438C8875
:100D00002343CC8823431843108210BD0021018067
:100D100041808180C180704721B1828942F40052B4
:100D2000828104E082894DF6FF731A408281704708
:100D3000028B02F47F420283028B0A4302837047D4
:100D400021B1828942F40042828103E08289C2F3A8
:100D50000E028281704721B1828A42F4006282824F
:100D600004E0828A4FF2FF731A4082827047C1F317
:100D700008028280704701468888C0F308007047E7
:100D8000028A4FF6F0731A400282028A0A430282F4
:100D9000704721B1828942F00202828104E0828997
:100DA0004FF6FD731A408281704782894FF2FF73BC
:100DB0001A40828182890A4382817047028A4FF6F3
:100DC000DF731A400282028A0A430282704721B10D
:100DD000028A42F48042028204E0028A4BF6FF73E8
:100DE0001A4002827047818941F001018181704778
:100DF00021B1828A42F00802828204E0828A4FF6A0
:100E0000F7731A4082827047028BD2B20283028B40
:100E100042EA01220283704721B1828A42F0200215
:100E2000828204E0828A4FF6DF731A408282704722
:100E300021B1828A42F01002828204E0828A4FF657
:100E4000EF731A4082827047828A4FF6FB731A4012
:100E50008282828A0A438282704721B1828A42F06A
:100E60000202828204E0828A4FF6FD731A40828277
:100E700070471AB1838A0B43838202E0838A8B43D3
:100E800083827047F0B50346002400260025002029
:100E900040F66A17B94200D100BF1846C1F34214A8
:100EA00001F01F06012707FA06F5012C01D10C30CD
:100EB00004E0022C01D1103000E014301AB10768B0
:100EC0002F43076002E00768AF430760F0BD0246AA
:100ED0000020B1F5007F00D100BF13880B400BB19B
:100EE000012000E00020704701F40072B2F5007F9D
:100EF00000D100BFCA430280704770B5024600248B
:100F000000230025002040F66A16B14200D100BF40
:100F1000C1F3421501F01F03012606FA03F3012D68
:100F200002D19689334006E0022D02D1168A334061
:100F300001E0968A33400C12012606FA04F4168862
:100F4000344013B10CB1012000E0002070BD00005E
:100F5000001001400044004000480040004C0040A8
:100F6000005000400014014010B50022002340F65C
:100F70006A14A14200D100BF0A1201249440A3B216
:100F8000DC43048010BD000010B50446FE488442D6
:100F900008D101210846FFF757FD00210120FFF786
:100FA00053FD9DE0B4F1804F08D101210846FFF7C1
:100FB0003AFD00210120FFF736FD91E0F34884421D
:100FC00008D101210220FFF72EFD00210220FFF7AA
:100FD0002AFD85E0EE48844208D101210420FFF774
:100FE00022FD00210420FFF71EFD79E0E94884423C
:100FF00008D101210820FFF716FD00210820FFF786
:1010000012FD6DE0E448844208D101211020FFF771
:101010000AFD00211020FFF706FD61E0DF48844251
:1010200008D101212020FFF7FEFC00212020FFF73E
:10103000FAFC55E0DA48844208D101210220FFF78A
:1010400003FD00210220FFF7FFFC49E0D548844260
:1010500009D101210804FFF7F7FC00214FF480308B
:10106000FFF7F2FC3CE0D048844209D1012148045A
:10107000FFF7EAFC00214FF40030FFF7E5FC2FE01A
:10108000CA48844209D101218804FFF7DDFC002110
:101090004FF48020FFF7D8FC22E0C548844208D1F5
:1010A00001214020FFF7BFFC00214020FFF7BBFCDF
:1010B00016E0C048844208D101218020FFF7B3FC2C
:1010C00000218020FFF7AFFC0AE0BB48844207D133
:1010D00001218015FFF7A7FC0021A015FFF7A3FC55
:1010E00010BD00220288A84B98420ED0AC4B98420B
:1010F0000BD0B0F1804F08D0A44B984205D0A44B40
:10110000984202D0A34B984204D14FF68F731A40F5
:101110004B881A43A04B984207D0A04B984204D06A
:101120004FF6FF431A400B891A4302804B68C36293
:101130000B880385944B984202D0994B984201D179
:101140008B7A03860123838270474FF0FF31416021
:101150000021018001814180817270470185828276
:1011600070470A46002101884FF68F7319401143DA
:101170000180704741627047C16270470146486A0A
:1011800070470146088D704721B1028842F0020283
:10119000028004E002884FF6FD731A400280704717
:1011A00021B1028842F00402028004E002884FF676
:1011B000FB731A400280704721B1028842F080021E
:1011C000028004E002884FF67F731A400280704765
:1011D00002884FF6F7731A40028002880A430280A1
:1011E000704702884FF6FF431A40028002880A4384
:1011F0000280704721B1028842F00102028004E0BF
:1012000002884FF6FE731A400280704770B50024C2
:1012100000220023058C4FF6FE7635400584028CB3
:101220008388048B4FF68F752C40B51E2C400D889B
:101230002C43751E2A408D892A434D882A43524DDE
:10124000A84202D0564DA84213D14FF6F7752A4056
:10125000CD892A434FF6FB752A408D882A434FF6E5
:10126000FF652B404FF6FF552B400D8A2B434D8ACF
:101270002B43838004838D684563028470BD70B501
:10128000002400220023058C4FF6EF7635400584BC
:10129000028C8388048B48F6FF752C404FF6FF457F
:1012A0002C400D884FF6FF7606EA05252C434FF6B5
:1012B000DF752A408D8906EA05152A434D8806EA1E
:1012C00005152A43304DA84202D0354DA8421DD104
:1012D0004FF67F752A40CD894FF6FF7606EA051551
:1012E0002A434FF6BF752A408D8806EA05152A4322
:1012F0004FF6FF352B404FF2FF752B400D8A06EA63
:1013000085052B434D8A06EA85052B43838004839C
:101310008D688563028470BD70B5002400220023AF
:10132000058C4FF6FF6635400584028C8388848BDC
:101330004FF68F752C404FF6FC752C400D882C43D2
:101340004FF6FF552A408D894FF6FF7606EA0525B0
:101350002A434D8806EA05252A430B4DA84202D0B0
:101360000F4DA84238D14FF2FF752A40CD894FF674
:10137000FF7606EA05252A434FF6FF352A408D8879
:1013800006EA05252A4319E0000001400004004058
:1013900000080040000C0040001000400014004015
:1013A0000004014000400140004401400048014069
:1013B00000180040001C0040002000404EF6FF7561
:1013C0002B404DF6FF752B400D8A06EA05152B4381
:1013D0004D8A06EA05152B43838084838D68C56397
:1013E000028470BD70B5002200230024058C4EF6E7
:1013F000FF7635400584038C8488828B48F6FF7520
:101400002A404FF6FF452A400D884FF6FF7606EA40
:1014100005252A434DF6FF752B408D8906EA0535D3
:101420002B434D8806EA05352B43FE4DA84202D0DA
:10143000FD4DA84208D14BF6FF752C400D8A4FF6A2
:10144000FF7606EA85152C43848082838D680564C7
:10145000038470BD00210180418081808160818191
:10146000C18101824182704770B50346002000248B
:101470001846183001258D40ACB21D8CA5431D8443
:1014800009B108290AD100EB610005684FF68F7693
:10149000354005600568154305600FE00D1FC5F375
:1014A0004E052844056848F6FF7635400560056816
:1014B0004FF6FF7606EA02263543056070BD4163AC
:1014C000704781637047C1637047016470470A4683
:1014D0000021018B4FF68F73194011430183704730
:1014E0000A460021018B48F6FF7319404FF6FF733F
:1014F00003EA02231943018370470A460021818BC6
:101500004FF68F7319401143818370470A460021BB
:10151000818B48F6FF7319404FF6FF7303EA0223ED
:101520001943818370470A460021018B4FF6F773F8
:1015300019401143018370470A460021018B4FF285
:10154000FF7319404FF6FF7303EA02231943018327
:1015500070470A460021818B4FF6F77319401143FB
:10156000818370470A460021818B4FF2FF73194037
:101570004FF6FF7303EA02231943818370470A463B
:101580000021018B4FF6FB73194011430183704713
:101590000A460021018B4FF6FF3319404FF6FF73C7
:1015A00003EA02231943018370470A460021818B15
:1015B0004FF6FB7319401143818370470A4600219F
:1015C000818B4FF6FF3319404FF6FF7303EA022376
:1015D0001943818370470A460021018B4FF67F73C0
:1015E00019401143018370470A460021018BC1F362
:1015F0000E014FF6FF7303EA02231943018370477C
:101600000A460021818B4FF67F7319401143818375
:1016100070470A460021818BC1F30E014FF6FF731C
:1016200003EA02231943818370470A460021018C93
:101630004FF6FD7319401143018470470A4600219B
:10164000018C4FF6F77319401143018470470A4625
:101650000021018C4FF6DF7319404FF6FF7303EA48
:1016600002131943018470470A460021018C4FF68A
:101670007F7319404FF6FF7303EA02131943018485
:1016800070470A460021018C4FF6FF5319404FF670
:10169000FF7303EA02231943018470470A460021BD
:1016A000018C4FF2FF7319404FF6FF7303EA0223D8
:1016B0001943018470470A460021018C4DF6FF73DF
:1016C00019404FF6FF7303EA023319430184704750
:1016D00030B5002301248C40A3B2048C9C430484C5
:1016E000048C02FA01F5ADB22C43048430BD30B550
:1016F000002304248C40A3B2048C9C430484048CF7
:1017000002FA01F5ADB22C43048430BD828B4FF256
:10171000FF331A408283828B4FF6FF7303EA012363
:101720001A4382837047F0B50C461546002100220B
:101730000026078C4EF6FF7C07EA0C070784818B96
:10174000028C4FF6FF7707EA043640F6FF47394030
:101750004FF6FF7707EA052739434FF6FF7707EA89
:101760000337394345F6FF773A4046F480573A430A
:1017700081830284F0BD828B4FF6F3731A4082831B
:10178000828B0A4382837047F0B50C4615460021D0
:1017900000220026078C4FF6FF6C07EA0C0707842F
:1017A000818B028C4FF6FF7707EA04264FF60C7701
:1017B00039404FF6FF7707EA03172F4339434FF2BB
:1017C000FF573A4046F480773A4381830284F0BD64
:1017D000028B4FF2FF331A400283028B4FF6FF73E6
:1017E00003EA01231A4302837047F0B50C461546FD
:1017F000002100220026078C4FF6EF7C07EA0C0739
:101800000784018B028C4FF6FF7707EA041640F637
:10181000FF4739404FF6FF7707EA033739434FF662
:10182000FF7703E0000001400004014007EA0527BC
:1018300039434FF65F773A4046F010073A43018349
:101840000284F0BD028B4FF6F3731A400283028BC1
:101850000A4302837047F0B50C461546002100226A
:10186000068C4FF6FE773E400684018B028C4FF6C5
:101870000C7631407E1C06EA03162E4331434FF6A8
:10188000F576324044F00106324301830284F0BD14
:1018900070B505460C46208850B92389A288618816
:1018A0002846FFF7D8FFE1882846FFF7CBFF25E061
:1018B000208804280AD12389A28861882846FFF756
:1018C00094FFE1882846FFF783FF17E02088082867
:1018D0000AD12389A28861882846FFF755FFE1884D
:1018E0002846FFF748FF09E02389A2886188284637
:1018F000FFF719FFE1882846FFF708FF70BD0021B8
:1019000001804180012181800021C18001817047D7
:101910002DE9F04105460C4600260127608808B9EC
:10192000022600E00026A088012801D1022700E05D
:1019300001272088A0B92389A28861882846FFF75B
:101940008AFFE1882846FFF77DFF23893A46314622
:101950002846FFF74AFFE1882846FFF739FF13E0E2
:101960002389A28861882846FFF73FFFE18828463F
:10197000FFF72EFF23893A4631462846FFF76BFFD3
:10198000E1882846FFF75EFFBDE8F0810146486B1D
:1019900070470146886B70470146C86B7047014627
:1019A000086C70470A884B881A438B881A43CB8887
:1019B0001A430B891A434B891A438B891A43A0F89F
:1019C000442070470021018041808180C1800181D5
:1019D00041818181704731B1B0F8442042F4004226
:1019E000A0F8442005E0B0F84420C2F30E02A0F8AD
:1019F0004420704721B1828842F00402828004E0D2
:101A000082884FF6FB731A408280704721B182882A
:101A100042F00102828004E082884FF6FE731A4091
:101A2000828070471AB183890B43838102E08389E6
:101A30008B43838170478182704702460020138A5E
:101A40000B400BB1012000E000207047CA43028226
:101A5000704730B50246002000230024158A05EAAD
:101A60000103958905EA010413B10CB1012000E0DE
:101A7000002030BDCA430282704741EA0203A0F849
:101A8000483070471AB183890B43838102E0838910
:101A90008B438381704721B1828842F008028280A3
:101AA00004E082884FF6F7731A40828070470189FC
:101AB0004FF6F8721140018170470A4600210189F2
:101AC0004FF68F73194011430181704730B50446BA
:101AD0000D4629462046FFF7F0FF208940F0070019
:101AE000208130BD2DE9F04104460D4616461F46C3
:101AF000602D06D13B46012231462046FFF775FE98
:101B000005E03B46012231462046FFF7A4FE294668
:101B10002046FFF7D2FF208940F007002081BDE872
:101B2000F08130B50C4600210189C9B24FF6FF752E
:101B300005EA0325154325432943018130BD2DE9DD
:101B4000F04105460E4617469846002443463A465D
:101B500031462846FFF7E5FF2C894FF6F870044020
:101B600044F007044FF68F70044044F070042C8159
:101B7000BDE8F081F0B504460D4616461F463B46CB
:101B8000324629462046FFF7CCFF208940F48040AA
:101B90002081F0BD82884FF68F731A408280828840
:101BA0000A438280704702894FF6F8731A40028117
:101BB00002890A430281704702894FF67F731A40F7
:101BC000028102890A4302817047F0B50C4615462E
:101BD0001E460021002200230189028B038C4FF650
:101BE000F877394021434FF6FC473A4040F201175D
:101BF0003A434FF6DD773B404FF6FF7707EA06178B
:101C00002F433B43018102830384F0BD21B18288CD
:101C100042F08002828004E082884FF67F731A408F
:101C200082807047A0F850107047000010B504463D
:101C3000F748844208D101218014FEF705FF0021F6
:101C4000A014FEF701FF16E0F248844208D10121FA
:101C50000014FEF7E8FE00212014FEF7E4FE0AE07F
:101C6000ED48844207D10121C013FEF7DCFE0021BC
:101C7000E013FEF7D8FE10BD10B50022028802F472
:101C800041520B884C8823438C882343CC882343C0
:101C90000C8923434C8923438C892343CC892343D8
:101CA0001A430280838B4FF2FF74234083830B8A95
:101CB000038210BD2DE9F04F0025022300240127E7
:101CC00000220026944690469146B0F81CA04FF2A0
:101CD000400B0AEA0B0AA0F81CA04FF0020AA0F879
:101CE00020A0858BD1F808A0BAF1020F01D100BF66
:101CF0006CE0B1F804A0BAF1000F01D1012700E0B7
:101D00000227DFF818A3DAF800A00AF4000ABAF1F3
:101D1000000F09D0DFF804A3DAF800A02AF4000AC3
:101D2000DFF8F8B2CBF800A0DFF8F0A20AF17C0AE5
:101D3000DAF800A0CAF38818DFF8E0A20AF17C0AFA
:101D4000DAF800A0CAF30279DFF8D0A2AAF1040AF7
:101D5000DAF800A00AF03F0CDFF8C4A2BAFBFCFAE4
:101D60000AFB08FABAFBF9F6B1F806A0BAF5007F4B
:101D70000ED14FEA162A0AEB8A0A4FEA4A0AD1F82C
:101D800008B0BAFBFBFA0AF1050A1FFA8AF20FE063
:101D90004FEA471AB6FBFAFA0AEB8A0A4FEA4A0AEE
:101DA000D1F808B0BAFBFBFA0AF1050A1FFA8AF269
:101DB0004FF00A0AB2FBFAF202F00104A2EB040AA5
:101DC000CAF34F034FF6FF7A0AEA0424022B01DB21
:101DD000FF2B01DD02230024B1F806A04AEA040A21
:101DE0004AEA030AA0F820A0B1F804A0B1F80CB0A8
:101DF0004AEA0B0AB1F802B04AEA0B0AB1F800B09D
:101E00004AEA0B0A4AF4006A4AEA05058583BDE8F6
:101E1000F08F0021018041808180C180018141815A
:101E20008181C181072101827047002101804180A9
:101E30008180C1800221816000218181704721B1B0
:101E4000028842F04002028004E002884FF6BF732D
:101E50001A400280704721B1828B42F480628283F3
:101E600004E0828B4FF6FF331A408283704702886A
:101E70004FF2FF731A40028002880A4302807047C3
:101E8000B1F5804F04D1028842F48042028004E020
:101E900002884BF6FF731A40028070474FF6FF62CC
:101EA000914204D0028842F48072028004E00288E9
:101EB0004FF6FF631A400280704721B1828842F0DA
:101EC0000402828004E082884FF6FB731A4082800D
:101ED000704721B1828842F01002828004E082883B
:101EE0004FF6EF731A408280704730B5002200230E
:101EF000848B4FF240052C40848302240484828B1F
:101F00000C88B4F5007F01D00C8814B94FF48073AD
:101F100008E00C88B4F5407F03D00C88B4F5807FCE
:101F200000D100238C888D892C434D882C431C4381
:101F300044F400642243828330BD0146888970479F
:101F40008181704721B1028842F40052028004E08E
:101F500002884DF6FF731A4002807047018841F4F1
:101F600080510180704702460020012901D0108B6A
:101F700000E0908A70470146088A70471AB183884A
:101F80000B43838002E083888B438380704730B5A6
:101F9000002400230C110125A540ABB21AB185889D
:101FA0001D43858002E085889D43858030BD0246C3
:101FB000002013890B400BB1012000E00020704786
:101FC000CA4302817047F0B5024600200024002376
:101FD000002501F00F070126BE40B4B20B11012607
:101FE0009E40B3B2968806EA03051689264016B1CC
:101FF0000DB1012000E00020F0BD10B5002201F07D
:102000000F040123A3409AB2D343038110BD000003
:102010000030014000380040003C004008380240D9
:1020200000127A00002044490860091D0860091D5B
:102030000860091D086041483F4914310860704735
:1020400000213D498279002A3AD00A461268036885
:102050009A430B461A600A1D126803689A430B1DC7
:102060001A60027911440A6803681A430A60324A06
:102070000832126803689A432F4B08331A601A1DFE
:10208000126803689A432C4B0C331A604279102A69
:102090000ED11A1F126803681A43274B08331A60BF
:1020A0001A1D126803681A43234B0C331A600DE0A3
:1020B0002149427911440A6803681A430A6005E01D
:1020C000027911440A6803689A430A607047002144
:1020D000016001710C214171002181717047164925
:1020E000103109680143144A1032116070470146EB
:1020F0000020114A143212680A400AB1012000E09F
:10210000002070470C4914310860704701460020D8
:102110000022094B1B6803EA0102074B14331B68BA
:102120000B4013B10AB1012000E0002070470249C2
:102130001431086070470000003C0140FFFF7F0041
:1021400010B501218803FEF77FFC00214FF4804089
:10215000FEF77AFC10BD1A490860704730B50022BE
:102160008B071C0F0F2303FA04F2154B08338C1056
:1021700053F824309343124C08348D1044F8253022
:1021800023468C1053F824308C07240F00FA04F4F3
:1021900023430B4C08348D1044F8253030BD0949D9
:1021A00008607047084908607047002004492031E2
:1021B000096801F4807109B1012000E00020704736
:1021C00000380140DC002742000427420CB5002003
:1021D000019000907648006840F4803074490860AF
:1021E00000BF7348006800F4003000900198401C64
:1021F0000190009818B90198B0F5A06FF1D16C4822
:10220000006800F4003010B10120009001E00020CF
:1022100000900098012846D165484030006840F0A1
:1022200080506349403108606248006840F4804053
:10223000604908605E48083000685D490831086000
:102240000846006840F4004008600846006840F412
:10225000A05008605848091F0860081F006840F037
:102260008070091F086000BF5148006800F00070CE
:102270000028F9D040F20560504908604C48083009
:10228000006820F003004A490831086008460068E9
:1022900040F00200086000BF45480830006800F0C8
:1022A0000C000828F8D10CBD10B54548006840F472
:1022B0007000434908603E48006840F001003C4916
:1022C000086000203A4908310860394800683D49F3
:1022D0000840374908603C48091D0860081F00682D
:1022E00020F48020091F0860002031490C3108606B
:1022F000FFF76CFF4FF0006031498039086010BD76
:1023000070B500200022022300240221284D083548
:102310002D6805F00C0020B1042806D0082834D11F
:1023200007E02A4D2A4E356033E02A4D284E3560AD
:102330002FE01F4D2D1D2D68C5F380541C4D2D1D04
:102340002D6805F03F0154B1224DB5FBF1F5184E53
:10235000361D3668C6F3881605FB06F209E01B4DEC
:10236000B5FBF1F5124E361D3668C6F3881605FB2F
:1023700006F20F4D2D1D2D68C5F301456D1C6B0038
:10238000B2FBF3F5124E356003E0104D104E356090
:1023900000BF00BF064D08352D68C5F303150E4E6E
:1023A000705D0B4D2D68C540094E356070BD000055
:1023B000003802400070004008544007003C0240D2
:1023C00088ED00E0FFFFF6FE103000240024F4004A
:1023D0001000002000127A001400002010B5014601
:1023E0000EE041F2883207E0022301E05C1EA3B256
:1023F000002BFBDC541EA2B2002AF5DC4C1EA1B25D
:102400000029EEDC10BD70B505460C46012D06D046
:10241000022D11D0032D1AD0042D32D124E02CB17D
:102420004FF48051CA48FEF799F804E04FF4805108
:10243000C748FEF795F853E024B10221C548FEF7DE
:102440008DF803E00221C348FEF78AF848E02CB17A
:102450004FF40051BF48FEF781F804E04FF40051FB
:10246000BC48FEF77DF83BE02CB14FF48071B848D2
:10247000FEF774F804E04FF48071B548FEF770F889
:102480002EE02CB14FF48051B148FEF767F804E01C
:102490004FF48051AE48FEF763F824B10221AD48F5
:1024A000FEF75CF803E00221AA48FEF759F82CB1C8
:1024B0004FF40051A748FEF751F804E04FF40051E3
:1024C000A448FEF74DF82CB14FF48071A048FEF7F8
:1024D00045F804E04FF480719D48FEF741F800BFD5
:1024E00000BF70BD1CB501210846FEF701FA0121AD
:1024F0000420FEF7FDF94FF48850009003208DF87A
:10250000050001208DF8040000208DF80600012050
:102510008DF8070069468E48FDF7A4FF42F20200DD
:10252000009069468B48FDF79DFF4FF4FA70FFF766
:1025300055FF01210520FFF766FF4FF4FA70FFF702
:102540004DFF00210520FFF75EFF4FF4FA70FFF703
:1025500045FF01210520FFF756FF1CBD70B505465C
:102560000C46012D06D0022D33D0032D60D0042D52
:1025700070D18DE02CB14FF480517548FDF7EEFF1E
:1025800004E04FF480517248FDF7EAFF24B90221BC
:102590007048FDF7E3FF03E002216E48FDF7E0FF1E
:1025A0002CB94FF400516B48FDF7D8FF04E04FF40D
:1025B00000516848FDF7D4FF2CB94FF4807164488E
:1025C000FDF7CCFF04E04FF480716148FDF7C8FFD0
:1025D000BCE02CB94FF480515D48FDF7BFFF04E02B
:1025E0004FF480515A48FDF7BBFF24B102215948EE
:1025F000FDF7B4FF03E002215648FDF7B1FF2CB907
:102600004FF400515348FDF7A9FF04E04FF4005187
:102610005048FDF7A5FF2CB94FF480714C48FDF7E9
:102620009DFF04E04FF480714948FDF799FF8DE06C
:102630002CB94FF480514648FDF790FF04E04FF469
:1026400080514348FDF78CFF2CB902214148FDF72A
:1026500085FF04E04BE002213E48FDF781FF2CB1ED
:102660004FF400513B48FDF779FF04E04FF400516F
:102670003848FDF775FF2CB94FF480713448FDF7E9
:102680006DFF04E04FF480713148FDF769FF5DE0B4
:102690002CB94FF480512E48FDF760FF04E04FF451
:1026A00080512B48FDF75CFF24B902212948FDF732
:1026B00055FF03E002212748FDF752FF2CB94FF4E4
:1026C00000512448FDF74AFF04E04FF4005121482F
:1026D000FDF746FF2CB14FF480711D48FDF73EFF1A
:1026E00004E04FF480711A48FDF73AFF2EE02CB158
:1026F0004FF480511648FDF731FF04E04FF480514C
:102700001348FDF72DFF24B102211248FDF726FFE3
:1027100003E002210F48FDF723FF2CB14FF40051D5
:102720000C48FDF71BFF04E04FF400510948FDF78A
:1027300017FF2CB14FF480710548FDF70FFF04E03F
:102740004FF480710248FDF70BFF00BF00BF70BD62
:10275000000002400008024000B58BB001210220B9
:10276000FEF7F9F801210320FEF7C2F833200190AB
:1027700002208DF8080003208DF8090000208DF854
:102780000A0001208DF80B0001A9AA48FDF76AFE96
:1027900002220021A748FDF7F0FE02220121A548F0
:1027A000FDF7EBFE02220421A248FDF7E6FE02221D
:1027B0000521A048FDF7E1FE40F2E7300990052031
:1027C000ADF820000020ADF82800ADF8220008A9DF
:1027D0009948FEF786FC6020ADF80C000120ADF8AA
:1027E0000E009648008805900020ADF8180003A957
:1027F0009148FEF70BFD08218F48FEF794FE01205B
:10280000ADF80E008E480088059003A98A48FEF7AF
:1028100036FD08218848FEF78FFE0120ADF80E0036
:1028200088480088059003A98348FEF775FD0821B4
:102830008148FEF78EFE0120ADF80E008248008828
:10284000059003A97C48FEF7CDFD08217A48FEF7E4
:1028500089FE01217848FEF7AFFC01217648FEF79A
:10286000C9FC0BB000BD00B58BB001210420FEF700
:1028700072F801210320FEF73BF84FF470700190CD
:1028800002208DF8080003208DF8090000208DF843
:102890000A0001208DF80B0001A96648FDF7E2FD52
:1028A000022206216348FDF768FE022207216148E3
:1028B000FDF763FE022208215E48FDF75EFE02225C
:1028C00008215C48FDF759FE4EF65F2009901B2059
:1028D000ADF820000020ADF82800ADF8220008A9CE
:1028E0005A48FEF7FEFB6020ADF80C000120ADF861
:1028F0000E005248008805900020ADF8180003A98A
:102900005248FEF783FC08215048FEF70CFE0120D8
:10291000ADF80E004A480088059003A94B48FEF721
:10292000AEFC08214948FEF707FE0120ADF80E0075
:1029300044480088059003A94448FEF7EDFC0821AF
:102940004248FEF706FE0120ADF80E003E48008822
:10295000059003A93D48FEF745FD08213B48FEF7D9
:1029600001FE01213948FEF727FC01213748FEF717
:1029700041FC0BB000BD10B540F22A34A04200DD8E
:10298000204640F22A34A14200DD214640F22A349A
:10299000A24200DD224640F22A34A34200DD234653
:1029A000012800DA0120012900DA0121012A00DAD8
:1029B0000122012B00DA01231F4C34342060241D36
:1029C0002160241D2260241D236010BD30B540F21B
:1029D0002A34A04200DD204640F22A34A14200DD24
:1029E000214640F22A34A24200DD224640F22A3437
:1029F000A34200DD2346012800DA0120012900DA84
:102A00000121012A00DA0122012B00DA012300EB67
:102A100040040E4D34352C6001EB41042D1D2C601B
:102A200002EB42042D1D2C6003EB43042D1D2C6092
:102A300030BD0000000402400004004024000020DB
:102A400026000020280000202A0000200008004066
:102A500008B51420009000BF0098411E0091002886
:102A6000FAD108BD1CB501210220FDF741FF4FF44A
:102A70004040009001208DF8040003208DF80500EF
:102A800001208DF806008DF807006946C148FDF762
:102A9000E9FC0120C0490860C049C1F8BC021CBD66
:102AA00010B50120BC49091D0860FFF7D1FF0120C6
:102AB000BA49C1F8B802FFF7CBFF0020B649091D9B
:102AC0000860FFF7C5FF0020B449C1F8B802FFF75E
:102AD000BFFF10BD10B50020AF490860FFF7B8FF79
:102AE0000020AE49C1F8BC02FFF7B2FF0120AA499D
:102AF0000860FFF7ADFF0120A849C1F8BC02FFF74D
:102B0000A7FF10BD10B500240020A3490860FFF7FF
:102B10009FFF0120A149C1F8BC02FFF799FF0120E6
:102B20009D490860FFF794FF07E0601CC4B2FA2CCF
:102B300003DDFFF7CFFF012010BD97487C38006808
:102B40000028F2D194490860FFF782FF0020F3E7E4
:102B500010B5002090490860FFF77AFF00208F49E8
:102B6000C1F8BC02FFF774FF01208B490860FFF732
:102B70006FFF00208949C1F8B802FFF769FF10BD57
:102B800010B5002084490860FFF762FF01208349E7
:102B9000C1F8BC02FFF75CFF01207F490860FFF726
:102BA00057FF00207D49C1F8B802FFF751FF10BD63
:102BB00070B50446002513E0002077490860FFF750
:102BC00047FFE0097549C1F8BC026006040EFFF733
:102BD0003FFF012070490860FFF73AFF681CC5B24B
:102BE000082DE9DB00206C49086070BD70B5054612
:102BF000002401206849091D0860002614E06006D1
:102C0000040E002064490860FFF722FF0120634999
:102C1000C1F8B802FFF71CFF5F487C38006808B1B4
:102C2000601CC4B2701CC6B2082EE8DB00205A49F2
:102C3000086015B9FFF7A4FF01E0FFF789FF204600
:102C400070BD70B504460D461646FFF729FF6106B4
:102C5000080EFFF7ADFFFFF755FF18B1FFF73AFF7A
:102C6000012070BD2846FFF7A3FFFFF74BFF30465A
:102C7000FFF79EFFFFF746FFFFF72CFF0020F0E76E
:102C800070B504460D461646FFF70AFF6106080EAA
:102C9000FFF78EFFFFF736FF18B1FFF71BFF01208C
:102CA00070BD2846FFF784FFFFF72CFFFFF7F8FE03
:102CB000012101EB4401C8B2FFF77AFFFFF722FFC1
:102CC0000020FFF793FF3070FFF704FF0020E7E7D5
:102CD0002DE9F04105460E4617461C46FFF7E0FE7B
:102CE0006906080EFFF764FFFFF70CFF20B1FFF73E
:102CF000F1FE0120BDE8F0813046FFF759FFFFF7F4
:102D000001FF05E014F8010BFFF752FFFFF7FAFE91
:102D10003800A7F10101CFB2F4D1FFF7DBFE0020AC
:102D2000E8E72DE9F04106460F4614461D46FFF739
:102D3000B7FE7106080EFFF73BFFFFF7E3FE20B179
:102D4000FFF7C8FE0120BDE8F0813846FFF730FFED
:102D5000FFF7D8FEFFF7A4FE012101EB4601C8B240
:102D6000FFF726FFFFF7CEFE0DE0012C04D1002077
:102D7000FFF73CFF287003E00120FFF737FF2870C2
:102D80006D1C601EC4B2002CEFD1FFF7A3FE002023
:102D9000D9E7000000040240B8824042008040426F
:102DA00010B5DF4B0E223B216820FFF7BAFF10BDA4
:102DB00010B5FFF7F5FFDA484078D949097840EABD
:102DC0000120D8490988401A00B2D7490880D44860
:102DD000C078D349897840EA0120D2494988401A0D
:102DE00000B2D1494880CE484079CD49097940EABE
:102DF0000120CC498988401A00B2CB498880C84854
:102E0000407AC749097A40EA0120C8490988401A2E
:102E100000B2C7490880C248C07AC149897A40EAED
:102E20000120C2494988401A00B2C1494880BC48C3
:102E3000407BBB49097B40EA0120BC498988401A94
:102E400000B2BB498880BB480078002854D1BA48FA
:102E5000007870B90020B549088048808880B7495B
:102E60000860B7490860B74908600120B249087096
:102E700010BDAF48B0F90000B04909680844AF4937
:102E80000860AB48B0F90200AD4909680844AC4994
:102E90000860A748B0F90400AA4909680844A9498C
:102EA0000860A5480078C82821D1A4480068A24934
:102EB000097890FBF1F000B29C490880A0480068B6
:102EC0009D49097890FBF1F000B2984948809D48EF
:102ED00000689949097890FBF1F000B29349888025
:102EE000002095490870012092490870C0E7924877
:102EF0000078401C904908709348007800284CD115
:102F00009248007870B900208649088048808880FF
:102F10008F4908608F4908608F49086001208B49FC
:102F20000870A5E78048B0F900008949096808449D
:102F3000874908607C48B0F902008649096808445E
:102F40008449086081480078C82821D180480068F9
:102F50007E49097890FBF1F000B2724908807D4803
:102F600000687A49097890FBF1F000B26D49488019
:102F7000794800687549097890FBF1F000B2694919
:102F8000888000207149087001206F4908706FE740
:102F90006E480078401C6D49087000BF68E7F8B5BE
:102FA00006460F4614461D466B46012239463046FA
:102FB000FFF7B7FE2DB10120A0409DF80010084397
:102FC00005E00120A0409DF8001021EA0000C0B2F9
:102FD00000909DF8002039463046FFF732FEF8BDDC
:102FE0002DE9F8430746884614461D46089E6B4661
:102FF000012241463846FFF794FE601CFF2101FA8A
:1030000000F0C4F108012944491EFF220A4110437F
:1030100000F0FF09C5F1080006FA00F0C6B2C4F1DD
:10302000070006419DF8000000EA090000909DF8A5
:103030000000304300909DF8002041463846FFF7DD
:1030400000FEBDE8F88338B50446032302226B2155
:1030500068200094FFF7C4FF38BD38B5044602234A
:1030600004221B2168200094FFF7BAFF38BD38B551
:103070000446022304221C2168200094FFF7B0FFBD
:1030800038BD10B50446234606226B216820FFF7A1
:1030900086FF10BD10B50446234605226A2168202C
:1030A000FFF77DFF10BD10B50446234601223721EE
:1030B0006820FFF774FF10BD38B5044603230222D1
:1030C0001A2168200094FFF78BFF38BD10B5FFF779
:1030D000C9FC0020FFF7D5FF0A20FFF77FF9012088
:1030E000FFF7B1FF0A20FFF779F90320FFF7B5FFDB
:1030F0000A20FFF773F90320FFF7B9FF0A20FFF753
:103100006DF90320FFF7D8FF0A20FFF767F910BD1C
:1031100000200D490870704700200649087070476C
:103120004C0100203C01002024010020420100202D
:103130002A0100202D0000203C000020300000204B
:1031400034000020380000202C0000204C0000201B
:10315000400000204400002048000020014600BF3D
:10316000704700BFFE4A128802F04002002AF9D0E0
:10317000C2B2FB4B9A80704710B586B0044601215D
:103180000846FDF7B5FB01211020FDF7F5FB0722EE
:103190000921F448FDF7F1F907220A21F148FDF76A
:1031A000ECF94FF40070049002208DF81400002018
:1031B0008DF8160002208DF8150001208DF81700FB
:1031C00004A9E848FDF74EF94FF48060049001200F
:1031D0008DF8160000208DF8170004A9E148FDF7CE
:1031E00041F900940020ADF80400ADF80600ADF8F8
:1031F0000800ADF80C000C20ADF80A006946D8486C
:10320000FDF702FD012240F22551D548FDF73AFEB7
:103210000121D348FDF780FD06B010BD08B525207B
:103220008DF8000002208DF8010001208DF80200C9
:103230008DF803006846FDF73CF808BDC8480088D3
:1032400000F0080018B1C6498988C8B200BFC44858
:10325000008800F08000D0B1C148808900F0800073
:10326000A8B1C14801780078401CBF4A1070BF481F
:10327000405CBB49888010460078BD490978884287
:1032800005D1B748808920F08000B5498881B448CD
:10329000008800F02000002878D0B1498988C8B2A1
:1032A000B449097871B924284DD1B349097801EBA3
:1032B000C10202EB0111B14A02F811000121AD4A2D
:1032C000117040E0AB490978012913D14D280DD187
:1032D000A949097801EBC10202EB0111A74A02EBEF
:1032E000410148700221A34A11702CE00021A14A3B
:1032F000117028E09F490978022913D13C280DD18B
:103300009D49097801EBC10202EB01119B4A02EBD6
:10331000410188700321974A117014E00021954AF9
:10332000117010E09449097801EBC10202EB011120
:10333000924A02EB41018F4A127888548D490978EC
:10334000491C8C4A11708C49097801EBC10202EBCF
:1033500001118A4A02EB4101C978891D854A127818
:10336000914212D10021834A11708349097839B101
:103370000021814A11700121814A117005E005E0A8
:1033800001217D4A11707F4A117000BF704710B54E
:103390007C480078012803D07948007801287CD146
:1033A00078480078012804D100207649087000246C
:1033B00003E0002072490870012404EBC40000EB14
:1033C00004106E4901EB40000079CD286FD004DC79
:1033D000702869D0CA2875D104E0CE286AD0D028D8
:1033E00070D16AE004EBC40000EB0410634901EB08
:1033F000400040796449087004EBC40000EB0410FD
:103400005E4901EB400080795F49487004EBC400DD
:1034100000EB0410594901EB4000C0795A4988700B
:1034200004EBC40000EB0410544901EB4000007AA7
:103430005549C87004EBC40000EB04104F4901EB80
:103440004000417A5048017104EBC40000EB0410C5
:103450004A4901EB4000817A4B48417104EBC400BA
:1034600000EB0410454901EB4000C07A46498871E1
:1034700004EBC40000EB0410404901EB4000017B69
:103480004148C17104EBC40000EB04103B4901EB5F
:103490004000417B3C48017201E014E007E002F08B
:1034A000BDF802F02BF80DE002F028F80AE0FFF773
:1034B0002FFE07E0FFF730FE04E002F001F902F012
:1034C0001DF800BF00BF10BD10B5044628480178A4
:1034D0000078401C264A10702448445420488089B3
:1034E00000F0800028B9012240F227711C48FDF746
:1034F000C9FC204610BD70B505460E4600240AE002
:10350000295D1B4802780078401C194B1870174839
:103510008154601CC4B2B442F2DB1148808900F0CF
:10352000800028B9012240F227710D48FDF7AAFC5E
:1035300070BD31B500249DF801100D480278007867
:10354000401C0B4B1870094881549DF80020184608
:1035500001780078401C187004484254004815E077
:10356000001001400000024058000020BE01002071
:103570005900002064000020650000205A0100204E
:103580005100002050000020EC030020808900F052
:10359000800028B9012240F227713748FDF772FCFC
:1035A0009DF801002044C4B29DF800002044C4B23C
:1035B000204638BD10B52DED020B00249DED000A0C
:1035C0002E4880ED000AC1782D4802780078401C12
:1035D0002B4B18702B488154284881781846027864
:1035E0000078401C187027488154244841781846B8
:1035F00002780078401C1870224881541F480178D6
:10360000184602780078401C18701E4881541A48E9
:10361000808900F0800028B9012240F22771164805
:10362000FDF730FC9DF803002044C4B29DF8020071
:103630002044C4B29DF801002044C4B29DF80000AB
:103640002044C4B220461CBD10B504460FE02078CB
:103650000D2802D1FFF738FF08E020780A2802D1B0
:10366000FFF732FF02E02078FFF72EFF641C20787E
:103670000028ECD110BD00000010014054000020D3
:1036800059000020BE01002000B587B00121084686
:10369000FDF72EF901214804FDF75DF9072202210B
:1036A0007248FCF76AFF072203217048FCF765FFA8
:1036B0000420059002208DF8180000208DF81A00D3
:1036C00002208DF8190001208DF81B0005A967481C
:1036D000FCF7C8FE0820059001208DF81A00002094
:1036E0008DF81B0005A96148FCF7BCFE60480190FD
:1036F0000020ADF808004FF40050ADF80A00C010EB
:10370000ADF80C000020ADF810000C20ADF80E0054
:1037100001A95848FDF778FA012240F22551554891
:10372000FDF7B0FB01215348FDF7F6FA07B000BDE5
:1037300008B526208DF8000003208DF801008DF8D3
:10374000020001208DF803006846FCF7B2FD08BDB9
:1037500010B5002440F225514648FDF7CEFB08B3D2
:103760004448FDF708FBC4B20F2C09D100204249A0
:103770000870424809784454FF204049087607E021
:103780003D480078401C3C4908703C480978445446
:103790003A4800780F2806D13848007E18B9012031
:1037A0003749087002E000203549087010BD3348E1
:1037B00040783249897840EA0120C0F30A00314953
:1037C00008802E488078C0102C49C97840EA411002
:1037D000C0F30A002B4948802848C0788011274947
:1037E000097940EA81002549497940EA8120C0F3FE
:1037F0000A00244988802148407940101F4989796E
:1038000040EAC110C0F30A001E49C8801B488079F5
:1038100000111A49C97940EA0110C0F30A00194998
:1038200008811648C079C0111449097A40EA41005C
:103830001249497A40EA4120C0F30A0011494881FF
:103840000E48407A80100D49897A40EA8110C0F311
:103850000A000C4988810948807A40110749C97AD1
:1038600040EAC1000749C8817047000000000240DB
:10387000A0860100004400407F0000206600002078
:1038800080000020F002002000B587B00121022056
:10389000FDF72EF801218804FDF75DF807220A21C3
:1038A000C248FCF76AFE07220B21C048FCF765FE00
:1038B0004FF48060059002208DF8180000208DF8EC
:1038C0001A0002208DF8190001208DF81B0005A9AF
:1038D000B648FCF7C7FD4FF40060059001208DF855
:1038E0001A0000208DF81B0005A9B048FCF7BAFDAE
:1038F0004FF4E13001900020ADF80800ADF80A0067
:10390000ADF80C00ADF810000C20ADF80E0001A9C8
:10391000A748FDF779F9012240F22551A448FDF7A7
:10392000B1FA0121A248FDF7F7F907B000BD08B5CB
:1039300027208DF8000001208DF8010002208DF86D
:10394000020001208DF803006846FCF7B2FC08BDB8
:1039500010B5002440F225519548FDF7CEFA10B37A
:103960009348FDF708FAC4B2A72C09D10020914969
:103970000870914809784454FF208F49887207E005
:103980008C480078401C8B4908708B480978445457
:1039900089480078A72807D18748807AFF2803D074
:1039A00001208649087002E000208449087010BD9B
:1039B00081480078A7287CD17F488078702806D07D
:1039C000712820D072283AD0732870D153E07A48F9
:1039D00040797949897940EA012000B27849088024
:1039E0007548C0797449097A40EA012000B27449E7
:1039F00048807148407A7049897A40EA012000B2D3
:103A00006F49888054E06C4840796B49897940EA75
:103A1000012000B26B4908806748C0796649097A7D
:103A200040EA012000B2674948806348407A624911
:103A3000897A40EA012000B26249888038E05E4815
:103A400040795D49897940EA012000B25E490880E9
:103A50005948C0795849097A40EA012000B25A49C8
:103A600048805548407A5449897A40EA012000B29A
:103A7000554988801CE0504840794F49897940EA8F
:103A8000012000B2514908804B48C0794A49097A5F
:103A900040EA012000B24D4948804748407A4649F3
:103AA000897A40EA012000B24849888000BF00BFFF
:103AB00000BF704710B52DED048B4149B1F90010DE
:103AC000880003F0C7FB41EC190B9FED410B53EC51
:103AD000102B03F067FA41EC180B03F089F93E490B
:103AE00008603749B1F90210880003F0B3FB41ECDC
:103AF000190B9FED370B53EC102B03F053FA41ECED
:103B0000180B03F075F9344948602D49B1F90410D8
:103B10004942880003F09EFB41EC190B9FED2C0BF2
:103B200053EC102B03F03EFA41EC180B03F060F954
:103B3000294988602449B1F9000003F08BFB41EC6E
:103B4000190B9FED260B53EC102B03F09BFB41EC64
:103B5000180B03F04DF9234908601B49B1F9020025
:103B600003F078FB41EC190B9FED1C0B53EC102B71
:103B700003F088FB41EC180B03F03AF9194948604F
:103B80001149B1F9040003F065FB41EC190B9FEDFD
:103B9000130B53EC102B03F075FB41EC180B03F0E7
:103BA00027F910498860BDEC048B10BD0004024069
:103BB000004800409A000020440300209B000020A1
:103BC00082000020880000208E0000209400002049
:103BD0006666666666663040140300207B14AE4756
:103BE000E17A843F2C03002000B589B00121042034
:103BF000FCF7B1FE01210220FCF77AFE4FF4707051
:103C0000079002208DF8200003208DF8210000206D
:103C10008DF822008DF8230007A9BB48FCF722FC91
:103C200002220621B848FCF7A8FC02220721B64868
:103C3000FCF7A3FC02220821B348FCF79EFC0222F9
:103C40000921B148FCF799FC5320ADF8040000208D
:103C5000ADF806004FF6FF7002900020ADF80C00A2
:103C600001A9AA48FDF73DFA0020ADF810000A208E
:103C7000ADF812000120ADF814000020ADF81600D8
:103C8000ADF8180004A9A148FDF702FE0420ADF824
:103C900010000A20ADF812000120ADF81400002039
:103CA000ADF81600ADF8180004A99848FDF7F0FD2E
:103CB0000820ADF810000A20ADF812000120ADF880
:103CC00014000020ADF81600ADF8180004A98F48C4
:103CD000FDF7DEFD0C20ADF810000A20ADF8120053
:103CE0000120ADF814000020ADF81600ADF8180062
:103CF00004A98648FDF7CCFD01218448FDF77AFA36
:103D0000012202218148FDF78DFE012204217F4816
:103D1000FDF788FE012208217C48FDF783FE012281
:103D200010217A48FDF77EFE1E208DF8000001204C
:103D30008DF801008DF802008DF803006846FCF74D
:103D4000B8FA09B000BD10B50120714908706F487C
:103D50001030008800F0020028B34FF6FD706B4968
:103D6000103108804FF6FF50088067481030006817
:103D700000F0400028B16548FDF708FE654908805D
:103D80001CE06248FDF702FE63490880084600888F
:103D900060490988884207DB5F4800885D490988D7
:103DA000401A5E49088009E05A4800884FF6FF71C2
:103DB000081A59490988084458490880534810305E
:103DC000008800F0040028B34FF6FB704F49103113
:103DD00008804FF6FF3008804B481030006800F034
:103DE000800028B14948FDF7D4FD4D4908801CE00A
:103DF0004648FDF7CEFD4B490880084600884849F3
:103E00000988884207DB4748008845490988401AE5
:103E10004249488009E0424800884FF6FF71081A7D
:103E20004049098808443D49488038481030008896
:103E300000F0080028B34FF6F770344910310880BD
:103E40004FF2FF70088030481030006800F4807036
:103E500028B12E48FDF7A0FD334908801CE02B480F
:103E6000FDF79AFD31490880084600882E490988E7
:103E7000884207DB2D4800882B490988401A2749CA
:103E8000888009E0284800884FF6FF71081A274902
:103E900009880844214988801C481030008800F0B7
:103EA000100028B34FF6EF701849103108804EF615
:103EB000FF70088014481030006800F4007028B1CA
:103EC0001248FDF76CFD1A4908801CE00F48FDF709
:103ED00066FD184908800846008815490988884207
:103EE00007DB1448008812490988401A0B49C8802A
:103EF00009E00F4800884FF6FF71081A0D4909883C
:103F000008440649C88010BD000402400008004073
:103F1000B1000020B2000020B40000209C0000206E
:103F2000B6000020B8000020BA000020BC0000202D
:103F3000BE000020C00000202F4800882F49C88004
:103F40002D48408888802C48808808802A48C0886E
:103F500048802948008908812748408948812648A7
:103F6000808988812448C089C881704700B5FFF7DF
:103F7000E3FF00BD10B52DED048B2049C988A1F2E7
:103F8000F35003F067F941EC190B9FED1D0B53EC57
:103F9000102B03F077F941EC180B02F029FF1A49B6
:103FA000086016498988A1F2F35003F053F941ECF7
:103FB000190B9FED130B53EC102B03F063F941EC3D
:103FC000180B02F015FF114908600C494988A1F24D
:103FD000F35003F03FF941EC190B9FED090B53EC43
:103FE000102B03F04FF941EC180B02F001FF0849C8
:103FF0000860BDEC048B10BD9C000020D0050020A3
:104000007B14AE47E17AA43FC4000020C800002022
:10401000CC0000201FB5044601210820FCF79BFCC2
:104020002848FCF7B1FF02945320ADF804000020AB
:10403000ADF80C00ADF8060001A92248FDF751F8D3
:1040400001212048FDF702FD012211461D48FDF720
:10405000E9FC01211B48FDF7CDF832208DF8000066
:1040600001208DF8010002208DF8020001208DF85A
:1040700003006846FCF71DF91FBD10B5012111486A
:10408000FDF7E7FC012818D10F480078401C0E49C5
:1040900008700E480078401C0C4908700C480078E5
:1040A000401C0B4908700B480078401C09490870F7
:1040B00009480078401C0849087001210148FDF7B3
:1040C000D9FC10BD000C0040D1000020D20000201F
:1040D000D3000020D4000020D500002000B52DED35
:1040E000108B81B0F0EE408AB0EE609AF0EE419A0B
:1040F000B0EE61BAB0EE42AAF0EE62AAF94890EDD5
:10410000000AF0EE40BAF84890ED000AB0EE40CA5E
:10411000F64890ED000AF0EE40CAF54890ED000A2E
:10412000B0EE40DA6BEE0B0A4AEE0A0A4AEEAA0A31
:10413000B0EE600A01F0BEFBB0EE408A2BEE080A3A
:10414000B0EE40BA2AEE080AB0EE40AA2AEE880A7B
:10415000F0EE40AAE44890ED000AE548D0ED000AF0
:1041600020EE200ADF48D0ED000AE04890ED001A6A
:1041700000EEC10AF0EE000A20EE200AF0EE40DA6E
:10418000D84890ED000AD848D0ED000A20EE200A69
:10419000D648D0ED000AD64890ED001A00EE810A0C
:1041A000F0EE000A20EE200AB0EE40EACD4890ED95
:1041B000000A20EE000ACC48D0ED000A90ED001A6B
:1041C00000EEC10AC948D0ED000A90ED001A00EED9
:1041D000C10AC748D0ED000A90ED001A00EE810A2E
:1041E000F0EE40EA2AEE2E0A0AEECE0AB0EE40FACF
:1041F0002AEEAD0A0BEE6E0AF0EE40FA2BEE0E0A36
:104200000AEE6D0A8DED000ABA4890ED000ADFED66
:10421000BA0A0FEE200A80ED000AB84890ED000AB5
:10422000DFEDB50A0FEEA00A80ED000AB448D0ED2C
:10423000000A9DED000A9FEDB01A40EE010AC0EDA4
:10424000000AF1EE040AB0EE680A00EE8F0AA948EF
:10425000D0ED000A30EE200AF0EE408AF1EE040ABA
:10426000B0EE490A00EEAF0AA448D0ED000A30EEE5
:10427000200AB0EE409A9DED000AB1EE041AF0EE6D
:10428000690A41EE000A9E4890ED000A30EE800A6D
:10429000F0EE409AB1EE4C0A20EE280A0CEEC90A64
:1042A0000DEE690A9FED971AF0EE6B0A40EE010AD7
:1042B0008C48C0ED000A2BEEA80A0CEEA90A0DEE00
:1042C000490A9FED901AF0EE4C0A40EE010A86482A
:1042D000C0ED000A2BEE890A0CEE690A0DEE280AE1
:1042E0009FED881AF0EE6C0A40EE010A7F48C0ED9F
:1042F000000A2BEEA90A0CEE090A0CEEE80A9FED63
:10430000811AF0EE4D0A40EE010A7948C0ED000A2C
:104310007448D0ED000A60EEA00A734890ED001AD0
:10432000D0ED001A41EE210A704890ED001AD0ED50
:10433000001A41EE210A6E4890ED001AD0ED001AE5
:1043400041EE210AB0EE600A01F0B4FAB0EE408A04
:10435000644890ED000A20EE080A80ED000A6248E9
:1043600090ED000A20EE080A80ED000A5F4890ED0B
:10437000000A20EE080A80ED000A5D4890ED000A70
:1043800020EE080A80ED000A5F4890ED000A5F48C1
:10439000B0F9040000EE900AF8EEE00A9FED5C1A16
:1043A00060EE810A9FED541A00EE810A564880EDB6
:1043B000000A01B0BDEC108B00BD10B52DED0A8BCD
:1043C0000446484890ED000A20EE000A4648D0ED29
:1043D000000A90ED001A00EEC10A4448D0ED000A30
:1043E00090ED001A00EEC10A4148D0ED000A90EDB0
:1043F000001A00EE810A10EE101A084603F002FAC5
:1044000041EC1B0B374890ED000A3748D0ED000A0D
:1044100020EE200A3548D0ED000A354890ED001A0C
:1044200000EE810AF0EE000A20EE200A10EE101ACB
:10443000084603F0E7F941EC1C0BB0EE4B1AF0EE26
:104440006B1AB0EE4C0AF0EE6C0A02F0F5FAB0EE20
:1044500040AAF0EE60AA51EC1A0B02F0BCFC41EC51
:10446000190B9FED2C0B53EC102B02F00BFF41ECC2
:10447000180B02F0BDFCA0601A4890ED000A1B4822
:10448000D0ED000A20EE200A1748D0ED000A1848A7
:1044900090ED001A00EEC10AF0EE000A20EE200AAC
:1044A00010EE101A084603F0ADF941EC1A0BB0EE0D
:1044B0004A0AF0EE6A0A01F097FFB0EE409AF0EE79
:1044C000609A9FED140B53EC102B51EC190B02F07A
:1044D000D9FE41EC180B02F08BFC6060BDEC0A8B3E
:1044E00010BD0000D8000020DC000020E00000200B
:1044F000E4000020E80000206F12833AEC00002066
:10450000F00000206F12033AE00500203601002081
:10451000F1FF793D00000020DCA54C409FEDFE0A34
:10452000FE4880ED000A9FEDFC0AFD4880ED000A80
:104530009FEDFC0AFC4880ED000A9FEDFC0AF7485D
:1045400080ED010A9FEDF90AF54880ED010A9FED23
:10455000F50AF54880ED010AB2EE000AEF4880ED59
:10456000020AB2EE000AEE4880ED020A9FEDED0A63
:10457000ED4880ED020A9FEDEE0AEE4880ED000A5C
:104580009FEDEB0AEC4880ED000AB6EE000AEB481E
:1045900080ED000A9FEDE30AE64880ED010A9FEDF9
:1045A000E10AE54880ED010A9FEDE50AE34880ED68
:1045B000010AB0EE000ADF4880ED020AB0EE000A00
:1045C000DD4880ED020A9FEDD70ADC4880ED020A43
:1045D00070470188B1F57A7F02DC4FF47A7100E010
:1045E000018801800188B1F5FA6F02DB4FF4FA61AE
:1045F00000E0018801808188B1F57A7F02DC4FF408
:104600007A7100E0818881808188B1F5FA6F02DBE0
:104610004FF4FA6100E081888180C188B1F57A7F2A
:1046200002DC4FF47A7100E0C188C180C188B1F525
:10463000FA6F02DB4FF4FA6100E0C188C180418863
:10464000B1F57A7F02DC4FF47A7100E04188418055
:104650004188B1F5FA6F02DB4FF4FA6100E041885E
:1046600041800189B1F57A7F02DC4FF47A7100E074
:10467000018901810189B1F5FA6F02DB4FF4FA611A
:1046800000E0018901814189B1F57A7F02DC4FF4B4
:104690007A7100E0418941814189B1F5FA6F02DB0D
:1046A0004FF4FA6100E0418941818189B1F57A7F57
:1046B00002DC4FF47A7100E0818981818189B1F552
:1046C000FA6F02DB4FF4FA6100E081898181704763
:1046D000CA88B2F5B96F07DDCA8840F2FA539A4228
:1046E00002DA40F2DC52CA808A88B2F5B96F07DD7F
:1046F0008A8840F2FA539A4202DA40F2DC528A8007
:104700004A88B2F5AF6F06DD4A88B2F5C86F02DAA3
:1047100040F2DC524A800A89B2F5BB6F06DB0A8997
:10472000B2F5BC6F02DC40F2DC520A814A89B2F574
:10473000BB6F06DB4A89B2F5BC6F02DC40F2DC528B
:104740004A81CA88A2F2DC5200EE102AB8EEC00AF2
:10475000F2EE0A0A80EE201A90ED010A30EE410ACC
:10476000784A82ED010A8A88A2F2DC5200EE102A11
:10477000B8EEC00AF2EE0A0A80EE201A90ED020AA4
:1047800030EE410A6F4A82ED020A4A88A2F2DC52F8
:1047900000EE102AB8EEC00AF2EE0A0A80EE201AE5
:1047A00090ED000A30EE410A664A82ED000A92ED71
:1047B000010AF2EE040AB4EEE00AF1EE10FA08DDA6
:1047C000564A92ED030AF2EE040A30EE200A82ED18
:1047D000030A5C4A92ED010AFAEE040AB4EEE00A1A
:1047E000F1EE10FA09D24D4A92ED030AFAEE040AEC
:1047F00030EE200A82ED030A0AE0484A92ED030AED
:10480000504AD2ED010A30EE200A444A82ED030AF2
:10481000424A92ED030ADFED4C0AB4EEE00AF1EEF3
:1048200010FA03DD9FED480A82ED030A3B4A92ED40
:10483000030ADFED460AB4EEE00AF1EE10FA03D205
:104840009FED420A82ED030A3E4A92ED020AF2EE21
:10485000040AB4EEE00AF1EE10FA08DD304A92EDF7
:10486000030AF2EE040A30EE200A82ED030A354A0A
:1048700092ED020AFAEE040AB4EEE00AF1EE10FA42
:1048800009D2274A92ED030AFAEE040A30EE200A12
:1048900082ED030A0AE0224A92ED030A294AD2ED88
:1048A000020A30EE200A1E4A82ED030A1C4A92EDEB
:1048B000030ADFED250AB4EEE00AF1EE10FA03DD9B
:1048C0009FED210A82ED030A154A92ED030ADFEDFE
:1048D0001F0AB4EEE00AF1EE10FA03D29FED1B0AB4
:1048E00082ED030A0A88B2F5966F09DA9FED0D0A88
:1048F0000A4A82ED030A9FED0B0A094A82ED030A78
:10490000064A92ED000A0F4AD2ED010A20EE200A73
:10491000024AD2ED010A1BE0CDCC9C4000060020EB
:10492000EC05002000000000140600200AD7A33C7C
:104930003333B33F3C0600202806002050060020F9
:104940004260E53B7403002000007A4400007AC412
:1049500092ED031A00EE810AFD4AD2ED010AFD4AEA
:1049600092ED011A70EEC10AFB4A92ED021A01EEB5
:10497000200A82ED040AF94A92ED000AF44AD2EDC7
:10498000020A20EE200AF54AD2ED010A92ED031A3E
:1049900000EE810AEE4AD2ED020AEE4A92ED021AC8
:1049A00070EEC10AED4A92ED021A01EE200A82ED84
:1049B000040AE74A92ED010AE64A82ED010AE44A56
:1049C00092ED020AE34A82ED020AE14A92ED000A00
:1049D000E04A82ED000A70472DE9F04105460C4699
:1049E00016466088B0F5AF6F06DD6088B0F5C86F19
:1049F00002DA40F2DC506080A089B0F5BB6F06DBC4
:104A0000A089B0F5BC6F02DC40F2DC50A081D24836
:104A100090ED040AD5ED010A9FEDD11A10EEC10AFE
:104A2000D04880ED010ACD4890ED040AD5ED000A8A
:104A30009FEDCB1A00EEC10ACA4880ED020A6088D9
:104A400040F2DC51081A00EE100AF8EEC00AB0EE8F
:104A5000001A80EE810AD5ED020A9FEDC11A00EE20
:104A6000C10AC04880ED000A90ED010ADFEDBE0AE0
:104A7000B4EEE00AF1EE10FA08DDBC4890ED030A4E
:104A8000DFEDB90A30EE200A80ED030AB54890ED5B
:104A9000010ADFEDB70AB4EEE00AF1EE10FA09D22E
:104AA000B24890ED030ADFEDB20A30EE200A80ED45
:104AB000030A0AE0AD4890ED030AAA48D0ED010AC6
:104AC00030EE200AA94880ED030AA84890ED030AB9
:104AD000DFEDA80AB4EEE00AF1EE10FA03DD9FED77
:104AE000A50A80ED030AA14890ED030ADFEDA20AB2
:104AF000B4EEE00AF1EE10FA03D29FED9F0A80EDCA
:104B0000030A984890ED020ADFED970AB4EEE00A36
:104B1000F1EE10FA08DD994890ED030ADFED920AF4
:104B200030EE200A80ED030A8E4890ED020ADFED98
:104B3000900AB4EEE00AF1EE10FA09D28F4890ED37
:104B4000030ADFED8B0A30EE200A80ED030A0AE04B
:104B50008A4890ED030A8348D0ED020A30EE200A1D
:104B6000864880ED030A854890ED030ADFED810A4F
:104B7000B4EEE00AF1EE10FA03DD9FED7E0A80ED5F
:104B8000030A7E4890ED030ADFED7B0AB4EEE00AEB
:104B9000F1EE10FA03D29FED780A80ED030A714816
:104BA00090ED000ADFED700AB4EEE00AF1EE10FAC3
:104BB00008DD734890ED030ADFED6B0A30EE200A42
:104BC00080ED030A674890ED000ADFED690AB4EE54
:104BD000E00AF1EE10FA09D2694890ED030ADFED20
:104BE000640A30EE200A80ED030A0AE0644890ED82
:104BF000030A5C48D0ED000A30EE200A604880EDE0
:104C0000030A5F4890ED030ADFED5A0AB4EEE00AAA
:104C1000F1EE10FA03DD9FED570A80ED030A5848C4
:104C200090ED030ADFED540AB4EEE00AF1EE10FA5B
:104C300003D29FED510A80ED030A2088B0F5966FEC
:104C400004DA1FEDC80A4E4880ED030A474890ED8C
:104C5000000A4448D0ED010A20EE200A4348D0ED76
:104C6000010A90ED031A00EE810A3E48D0ED010AD8
:104C7000444890ED011A70EEC10A3C4890ED021ACA
:104C800001EE200A80ED040A3C4890ED000A354808
:104C9000D0ED020A20EE200A3848D0ED010A90ED4E
:104CA000031A00EE810A2F48D0ED020A354890ED34
:104CB000021A70EEC10A314890ED021A01EE200A84
:104CC00080ED040A2E4890ED000A2648D0ED000A37
:104CD00020EE200A2A48D0ED010A90ED031A00EEDA
:104CE000810A2048D0ED000A264890ED001A70EEA7
:104CF000C10A234890ED021A01EE200A80ED040A51
:104D0000208840F24C41884221DD1F480078F0B9EC
:104D10002088A0F2B63000EE100AB8EEC00A1348A0
:104D2000D0ED040A30EE600A1448D0ED040A30EEEB
:104D3000200A1348D0ED040A30EE600ABDEEC00A26
:104D400010EE100A00B211490880208820E076E0B9
:104D5000740300208003002000060020EC050020E2
:104D6000E12E65428C030020000048423C060020F2
:104D7000000048C200409C4500409CC52806002019
:104D80005006002098030020F4000020F6000020C8
:104D9000A0F2B63000EE100AB8EEC00A3F48D0EDDF
:104DA000040A30EE200A3E48D0ED040A30EE600AD4
:104DB0003C48D0ED040A30EE600ABDEEC00A10EEA9
:104DC000100A00B2384908802088A0F2B63000EE00
:104DD000100AB8EEC00A3148D0ED040A30EE200ABD
:104DE0002F48D0ED040A30EE200A2E48D0ED040AF8
:104DF00030EE200ABDEEC00A10EE100A00B22B49B8
:104E000008802088A0F2B63000EE100AB8EEC00A82
:104E10002248D0ED040A30EE600A2148D0ED040AA1
:104E200030EE600A1F48D0ED040A30EE200ABDEED5
:104E3000C00A10EE100A00B21D4908800BE00120E4
:104E40001C4908800220184908800320174908805F
:104E5000042017490880164F3F88BBB2134F3F8884
:104E6000BAB2114F3F88B9B2124F3F88B8B2FDF7BE
:104E700082FD114890ED010A104880ED010A0E48AC
:104E800090ED020A0D4880ED020A0B4890ED000AF1
:104E90000A4880ED000ABDE8F08100003C060020D1
:104EA0002806002050060020F8000020FA0000200C
:104EB000FC000020F60000208C0300209803002056
:104EC0009FED511A60EE811AB7EE002A82EE211A88
:104ED00031EE001AC0EE011A4C48C0ED001A7047BE
:104EE000B0F90020B1F90030D21A00EE102AF8EE25
:104EF000C00A00EE103AB8EEC00A444A92ED001A19
:104F000001EE200ABDEEC00A10EE102A12B20A808D
:104F1000B0F90220B1F90230D21A00EE102AF8EEF0
:104F2000C00A00EE103AB8EEC00A384A92ED001AF4
:104F300001EE200ABDEEC00A10EE102A12B24A801D
:104F4000B0F90420B1F90430D21A00EE102AF8EEBC
:104F5000C00A00EE103AB8EEC00A2C4A92ED001AD0
:104F600001EE200ABDEEC00A10EE102A12B28A80AD
:104F70007047F0B502460023002400250020168863
:104F8000234FDFF890C09CF800C027F81C605788BA
:104F9000214EDFF880C09CF800C026F81C7096886F
:104FA0001E4FDFF870C09CF800C027F81C6000BFDF
:104FB0000DE0174E36F910603344174E36F9106085
:104FC0003444164E36F910603544461CF0B20C28B5
:104FD000EFDB0C2693FBF6F636B20E800C2694FB24
:104FE000F6F636B24E800C2695FBF6F636B28E807B
:104FF000084E3678761C074F3E703E4636780C2EAB
:1050000001D100263E70F0BDDB0FC9400001002039
:10501000A403002004010020BC030020D4030020CE
:1050200010B588B024208DF800004D208DF80100C7
:105030003E208DF8020012208DF8030066208DF8C6
:105040000400FE49B1F90000C11700EB91718C100A
:10505000E0B28DF80500200A8DF80600F749B1F995
:105060000200C11700EB91718C10E0B28DF80700BF
:10507000200A8DF80800F149B1F90400C11700EBCE
:1050800091718C10E0B28DF80900200A8DF80A00A9
:10509000EB48B0F90240E0B28DF80B00200A8DF821
:1050A0000C00E748B0F90040E0B28DF80D00200A8E
:1050B0008DF80E00E2488088404204B2E0B28DF8DC
:1050C0000F00200A8DF81000DE48B0F9000000EE55
:1050D000100AB8EEC00AF6EE080A20EE200ABDEE6D
:1050E000C00A10EE100A04B2E0B28DF81100200AD6
:1050F0008DF81200D348B0F9020000EE100AB8EEA5
:10510000C00AF6EE080A20EE200ABDEEC00A10EE34
:10511000100A04B2E0B28DF81300200A8DF81400D2
:10512000C848B0F9040000EE100AB8EEC00AF6EE66
:10513000080A20EE200ABDEEC00A10EE100A04B2E2
:10514000E0B28DF81500200A8DF81600684600F0D0
:10515000A2FB8DF8170020216846FEF7CCF908B0B5
:1051600010BD10B588B024208DF800004D208DF8BA
:1051700001003E208DF8020006208DF803006C200F
:105180008DF80400B04890ED010AF2EE040A20EE1A
:10519000200ABDEEC00A10EE100A04B2E0B28DF88B
:1051A0000500200A8DF80600A74890ED020AF2EEED
:1051B000040A20EE200ABDEEC00A10EE100A04B266
:1051C000E0B28DF80700200A8DF808009E4890EDA7
:1051D000000AB1EE400ABDEEC00A10EE100A04B299
:1051E000E0B28DF80900200A8DF80A00684600F048
:1051F00052FB8DF80B0020216846FEF77CF908B0C1
:1052000010BD10B588B024208DF800004D208DF819
:1052100001003E208DF8020010208DF80300682068
:105220008DF804008948007800F57A70C0B28DF8D6
:1052300005008648008800F57A70000A8DF806009F
:105240008348007800F57A70C0B28DF80700804876
:10525000008800F57A70000A8DF808007D48007813
:1052600000F57A70C0B28DF809007A48008800F520
:105270007A70000A8DF80A007748007800F57A7095
:10528000C0B28DF80B007448008800F57A70000AEF
:105290008DF80C0000208DF80D008DF80E008DF8B3
:1052A0000F008DF810008DF811008DF812008DF8A8
:1052B00013008DF81400684600F0EDFA8DF8150023
:1052C000002405E01DF80400FEF7FEF8601CC4B2DF
:1052D000162CF7DB08B010BD10B588B024208DF86F
:1052E00000004D208DF801003E208DF802001020B6
:1052F0008DF8030069208DF80400584880798DF8F6
:1053000005005648C088000A8DF806005348007909
:105310008DF8070051488088000A8DF808004F4832
:1053200080788DF809004D484088000A8DF80A0001
:105330004A4800788DF80B0048480088000A8DF82C
:105340000C004648007A8DF80D0044480089000A98
:105350008DF80E004148807A8DF80F003F48408953
:10536000000A8DF810003D48007B8DF811003B4885
:105370008089000A8DF812003848807B8DF8130070
:105380003648C089000A8DF81400684600F083FA98
:105390008DF81500002405E01DF80400FEF794F8D0
:1053A000601CC4B2162CF7DB08B010BD2C4890ED81
:1053B000000ABCEEC00A10EE100A2A4908702848FC
:1053C00090ED010ABCEEC00A10EE100A48702448A5
:1053D00090ED020ABCEEC00A10EE100A8870224856
:1053E00090ED000ABCEEC00A10EE100AC8701E480C
:1053F00090ED010ABCEEC00A10EE100AC1B21948C5
:105400000171194890ED020ABCEEC00A10EE100AB4
:10541000C1B214484171154890ED000ABCEEC00AB3
:1054200010EE100A0F498871104890ED010ABCEE89
:10543000C00A10EE100AC1B20A4819E02401002087
:105440002A01002030010020E0050020FC0000209F
:10545000F8000020FA000020F6000020D00500200F
:1054600000060020EC030020EC05002014060020BC
:10547000C171EE4890ED020ABCEEC00A10EE100AAF
:10548000C1B2EB480172EB4890ED000ABCEEC00AD5
:1054900010EE100AE6494872E64890ED010ABCEEAB
:1054A000C00A10EE100AC1B2E1488172E14890EDE5
:1054B000020ABCEEC00A10EE100AC1B2DC48C1728A
:1054C000DD4890ED000ABCEEC00A10EE100AD84983
:1054D0000873D94890ED010ABCEEC00A10EE100A1C
:1054E000C1B2D3484173D44890ED020ABCEEC00A61
:1054F00010EE100AC1B2CE488173704710B58AB061
:10550000FFF754FF24208DF800004D208DF8010096
:105510003E208DF802001B208DF8030070208DF8CE
:105520000400C34800788DF80500C14840788DF824
:105530000600BF4880788DF80700BD48C0788DF818
:105540000800BB4800798DF80900B94840798DF80A
:105550000A00B74880798DF80B00B548C0798DF8FE
:105560000C00B348007A8DF80D00B148407A8DF8F0
:105570000E00AF48807A8DF80F00AD48C07A8DF8E4
:105580001000AB48007B8DF81100A948407B8DF8D6
:105590001200A748807B8DF81300A548C07B8DF8CA
:1055A0001400A348007C8DF81500A148407C8DF8BC
:1055B00016009F48807C8DF817009D48C07C8DF8B0
:1055C00018009B48007D8DF819009948407D8DF8A2
:1055D0001A009748807D8DF81B009548C07D8DF896
:1055E0001C009348007E8DF81D009148407E8DF888
:1055F0001E008F48807E8DF81F00684600F04BF932
:105600008DF82000002405E01DF80400FDF75CFF84
:10561000601CC4B2212CF7DB0AB010BD84480078AE
:1056200000EE100AB8EE400A844880ED000A804877
:10563000407800EE100AB8EE400A804880ED010A7A
:105640007B48807800EE100AB8EE400A7B4880ED77
:10565000020A7748C07800EE100AB8EE400A78488F
:1056600080ED000A7248007900EE100AB8EE400A98
:10567000734880ED010A6E48407900EE100AB8EEDA
:10568000400A6F4880ED020A6948807900EE100AEE
:10569000B8EE400A654880ED000A6548C07900EE22
:1056A000100AB8EE400A614880ED010A6048007AAD
:1056B00000EE100AB8EE400A5C4880ED020A70471E
:1056C0009FED600A5D4880ED000A9FED5E0A80ED67
:1056D000010A9FED5C0A80ED020A9FED5A0A5848C4
:1056E00080ED000A9FED570A80ED010A9FED550AF3
:1056F00080ED020A9FED530A4C4880ED000A9FEDB1
:10570000510A80ED010A9FED4F0A80ED020A9FEDDC
:105710004D0A4D4880ED000A9FED4A0A80ED010ACE
:105720009FED480A80ED020A9FED460A414880ED50
:10573000000A9FED440A80ED010A9FED420A80EDC8
:10574000020A9FED400A3C4880ED000A9FED3D0AA9
:1057500080ED010A9FED3B0A80ED020A70471FB5FC
:1057600024208DF800004D208DF801003E208DF89A
:10577000020007208DF8030064208DF80400DE206D
:105780008DF8050003208DF8060000208DF8070035
:105790008DF808008DF809008DF80A000C208DF8AE
:1057A0000B00684600F077F88DF80C00002405E047
:1057B0001DF80400FDF788FE601CC4B20D2CF7DB59
:1057C0001FBD1FB524208DF800004D208DF801006D
:1057D0003E208DF8020008208DF8030073208DF81C
:1057E000040003208DF8050001208DF8060002203A
:1057F0008DF8070000208DF808008DF809008DF85D
:105800000A008DF80B008DF80C00684600F043F894
:105810008DF80D00002405E01DF80400FDF754FE8E
:10582000601CC4B20E2CF7DB1FBD00001406002064
:10583000EC0300202806002050060020000600206F
:10584000EC050020000000003C060020B0F900201C
:1058500000EE102AB8EEC00ADFED240A20EE200A7E
:1058600081ED000AB0F9022000EE102AB8EEC00A5D
:10587000DFED1E0A20EE200A81ED010AB0F90420B6
:1058800000EE102AB8EEC00ADFED180A20EE200A5A
:1058900081ED020A704710B501460020CB78002246
:1058A00004E0D41C0C5D6040541CE2B29C1CA2427B
:1058B000F7DB10BDF0EE400AF6EE001A60EEA11A1A
:1058C000B0EE611AB0EE600A10EE100A0849A1EBC2
:1058D000600000EE100A21EE002AF7EE081A42EEF0
:1058E000401A61EE801AB0EE610A704789A18B3AC6
:1058F000DF59375F10B5044600BF02217348FCF73B
:1059000056FB0028F9D021467048FCF719FB00BF70
:1059100001216E48FCF74BFB0028F9D06B48FCF7DF
:105920000CFBC0B210BD00B589B001210846FAF7E2
:10593000DFFF01210803FBF71FF848F2C0000790C2
:1059400002208DF8200000208DF8220003208DF821
:10595000210001208DF8230007A95D48FAF782FD98
:105960000820079002208DF8200001208DF82200E9
:1059700003208DF8210000208DF8230007A9554849
:10598000FAF770FD48F28000079002208DF82000A1
:1059900001208DF8220003208DF8210000208DF8D1
:1059A000230007A94A48FAF75DFD05220621484869
:1059B000FAF7E3FD052207214548FAF7DEFD052247
:1059C0000F214348FAF7D9FD052203214148FAF790
:1059D000D4FD01210803FBF737F800214FF4805074
:1059E000FBF732F80020ADF80800ADF80A00ADF87A
:1059F0000C000220ADF80E000120ADF810000020D0
:105A0000ADF812003820ADF814000020ADF81600F3
:105A10000720ADF8180002A92C48FCF72DF9012247
:105A200060212A48FCF7B3FA23208DF804000220F5
:105A30008DF805008DF8060001208DF8070001A8FB
:105A4000FAF737FC01212148FCF7F9F960211F48DA
:105A5000FCF7D3FAFF20FFF74DFF09B000BD10B5EA
:105A600004461A4800884FF6C77108401749088055
:105A7000084600882043088001211448FCF7DFF91C
:105A800010BD10B501211148FCF791FA01281CD175
:105A90000E48FCF752FA1049104A12788854104800
:105AA0000E4A1278815C0948FCF74AFA0B480078E4
:105AB000401C0A49087008460078052801D10020DA
:105AC000087060210148FCF77BFA10BD00300140EE
:105AD0000000024000040240050100200A010020ED
